:1000000071C000008EC000008CC000008AC00000DB
:1000100088C0000086C0000084C0000082C00000CC
:1000200080C000007EC000007CC000007AC00000DC
:1000300078C0000076C0000074C0000072C00000EC
:1000400070C000006EC000006CC000006AC00000FC
:1000500068C0000066C0000064C0000062C000000C
:1000600060C0000047C100005CC000005AC0000032
:1000700058C0000056C0000054C0000052C000002C
:1000800050C000004EC000004CC000004AC000003C
:100090005BC1000046C0000044C0000042C0000038
:1000A00040C000003EC000003CC000003AC000005C
:1000B00038C0000036C0000034C0000032C000006C
:1000C00030C000002EC000002CC000002AC000007C
:1000D00028C0000026C0000024C0000022C000008C
:1000E00020C0000011241FBECFEFD1E2DEBFCDBF84
:1000F00000E00CBF12E0A0E0B2E0EAEFF3E000E0C5
:100100000BBF02C007900D92AE30B107D9F723E0C4
:10011000AEE0B2E001C01D92A231B207E1F702D019
:100120006AC16ECF61E273E080E895E218D08AB1CF
:10013000806C8AB980E092E0C8D0809191028130D1
:1001400039F482E992E0C1D01092910210920F022C
:100150008FE39CE90197F1F700C00000EECFEF922A
:10016000FF920F931F93CF93DF937B019C0140E09D
:1001700050E060E472E48FE090E0F0D0E901219774
:10018000870116950795169507959801ABE7B4E199
:1001900001D1AC015695479524E6249FC001259FC7
:1001A000900D1124A701481B590B9A01ADECBCEC32
:1001B000F1D0FC01F695E795F695E795F695E7956C
:1001C0009F01220F331FCF01880F991F880F991F9E
:1001D000880F991F820F931F481B590BD093C5009E
:1001E000C093C4001092C00088E98093C1001092AF
:1001F000C2009801ABE7B4E1CDD0969587959927D9
:100200008630910581F018F4059739F01DC08730CC
:10021000910579F0089799F017C0A2ECB0E08C91A5
:10022000897F8C9311C0A2ECB0E08C9182608C939A
:100230000BC0A2ECB0E08C9184608C9305C0A2EC62
:10024000B0E08C9186608C93CF0199278130910525
:1002500051F018F0029769F011C0E2ECF0E08081F3
:100260008F7C80830BC0E2ECF0E080818062808331
:1002700005C0E2ECF0E08081806680835527413044
:10028000510521F04230510539F00BC0E2ECF0E0AD
:100290008081877F808305C0E2ECF0E08081886008
:1002A000808310920F02109291027894DF91CF9187
:1002B0001F910F91FF90EF900895E0ECF0E0908196
:1002C00095FFFDCF8093C60008950F931F93CF93A2
:1002D000FC018081882351F08F01C0E0EEDFCF5F09
:1002E000F801EC0FF11D80818111F8CFCF911F91A2
:1002F0000F9108951F920F920FB60F9211240BB613
:100300000F928F939F93EF93FF93E0ECF0E0808147
:100310008823ECF79091C60080910F02E82FF0E05F
:10032000EE56FD4F90838F5F80930F0281E08093A4
:100330009102FF91EF919F918F910F900BBE0F90C3
:100340000FBE0F901F9018951F920F920FB60F922D
:1003500011240F900FBE0F901F901895052E97FB3C
:1003600016F400940FD057FD05D023D007FC02D01F
:1003700046F408C050954095309521953F4F4F4F1A
:100380005F4F089590958095709561957F4F8F4F41
:100390009F4F0895A29FB001B39FC001A39F700D0E
:1003A000811D1124911DB29F700D811D1124911D7D
:1003B0000895A1E21A2EAA1BBB1BFD010DC0AA1FA6
:1003C000BB1FEE1FFF1FA217B307E407F50720F0BE
:1003D000A21BB30BE40BF50B661F771F881F991F39
:1003E0001A9469F760957095809590959B01AC0182
:0A03F000BD01CF010895F894FFCF7E
:0E03FA0068656C6C6F20776F726C640D0A0082
:00000001FF
